:020000040800F2
:100000000020002099010008DF010008E10100083C
:1000100000000000000000000000000000000000E0
:10002000000000000000000000000000E3010008E4
:10003000E501000800000000E7010008E9010008F0
:10004000EB010008ED010008EF010008F1010008D4
:10005000F3010008F5010008F7010008F9010008A4
:10006000FB010008FD010008FF0100080102000873
:100070000302000805020008000000000702000853
:10008000000000000902000800000000000000005D
:100090000B020008000000000D0200080F0200081B
:1000A00011020008130200081502000817020008D8
:1000B000190200081B0200081D0200081F020008A8
:1000C00010B5064C2378002B07D1054B002B02D02E
:1000D000044800E000BF0123237010BD6800002029
:1000E0000000000024060008084B10B5002B03D0C8
:1000F0000749084800E000BF07480368002B00D10B
:1001000010BD064B002BFBD09847F9E7000000001C
:100110006C00002024060008680000200000000099
:10012000164B002B00D1144B9D46402292029A1A86
:10013000924600218B460F461348144A121A00F0CB
:1001400057FA0F4B002B00D098470E4B002B00D0D6
:1001500098470020002104000D000D48002802D01F
:100160000C4800E000BF00F01DFA2000290000F05C
:10017000ABF900F001FAC0460000080000200020A2
:100180000000000000000000680000208400002043
:1001900000000000000000000649074A074B9B1AB8
:1001A00003DD043BC858D050FBDC054880470548B8
:1001B0000047000030060008000000206800002012
:1001C00029020008210100081549164A002301E010
:1001D0000B6004319142FBD300F076F9FEE7FEE7B5
:1001E000FEE7FEE7FEE7FEE7FEE7FEE7FEE7FEE7E7
:1001F000FEE7FEE7FEE7FEE7FEE7FEE7FEE7FEE7D7
:10020000FEE7FEE7FEE7FEE7FEE7FEE7FEE7FEE7C6
:10021000FEE7FEE7FEE7FEE7FEE7FEE7FEE7FEE7B6
:1002200068000020840000208021104B49001A68DB
:100230000A431A60D9680E4A0A40DA6019680D4A02
:100240000A4001211A609A688A439A6019680A4A2A
:100250000A401A60D968094A0A40DA6000221A6125
:100260008022074B12059A607047C046001002407A
:100270000C40FF88F6FFF6FEFFFFFBFFFFFF02FFCB
:1002800000ED00E002210120104AD36A0B43D36243
:100290000F4B1A688A431A601A6802431A609A88D8
:1002A00082439A80DA6802308243DA601A68053045
:1002B00082431A600422186802431A609A888A43AB
:1002C0009A80DA680A318A43DA6070470010024087
:1002D00000040050F0B55F4656464D4644460121A5
:1002E0000420F0B40224554B2025DA6A10260A4374
:1002F000DA62DA6A0243DA62514B1A68A2431A6080
:100300001A680A431A609A888A439A80DA68023126
:100310008A43DA601A6805318A431A601A68024310
:100320001A609A88A2439A80DA680A34A243DA6093
:100330001A68444CAA431A601A6832431A609A88B1
:1003400082439A80DA682C308243DA601A6850302F
:1003500082431A601A688146403802431A609A88BC
:1003600082468A439A80DA68B8318A43DA60A022EA
:10037000D2051168C03021401160116880460143E8
:10038000116091883048B1439180D1680140D160BB
:1003900017682E490F40802117601768C9000F4366
:1003A000176097888C46AF439780D76828490F40DD
:1003B000D7601168274F0F408021176017684901E7
:1003C0000F435146176097888F439780D168224F1B
:1003D0000F40D7601168214F0F40802117601768C8
:1003E000C9010F434946176097888F439780D168AA
:1003F0001B4F0F404146D7601A6814401C601A68B2
:100400000A431A609A881149B2439A80DA68104008
:10041000D8601A681140196061461A680A431A6068
:100420009A880B49AA439A80DA680A40DA603CBC91
:1004300090469946A246AB46F0BDC0460010024029
:1004400000080050FFFDFFFFFFFCFFFFFFF7FFFF6D
:10045000FFF3FFFFFFDFFFFFFFCFFFFFFF7FFFFF88
:10046000FF3FFFFFA023DB051968114A0A408021E6
:100470001A601A6849040A431A6099880D4A0A40AA
:100480009A80D9680C4A0A40DA6019680B4A0A4017
:1004900080211A601A6849020A431A609988084A3A
:1004A0000A409A80D968074A0A40DA607047C04615
:1004B000FFFFFFFDFFEFFFFFFFFFFFFCFFFFFDFF63
:1004C000FFFEFFFFFFFFFCFFF8B5FFF7DBFE01219A
:1004D0000224274B10259A8A20268A439A829A8AD8
:1004E000A2439A82FFF7F6FE0422224B1020998A3B
:1004F0000A4308219A829A8A8A439A820122998A17
:100500000A439A829A8AA2439A82A022D205918AA9
:10051000014389B291822021948A0C43A4B294822F
:100520004024978A3C4394828024978A3C43948257
:100530009C8A204380B29882988A0143402089B2E5
:100540009982918AA9439182918AB1439182918A39
:1005500081439182918A4030814391829A8AAA4351
:100560009A829A8AB2439A82FFF77CFFFEE7C046DE
:100570000004005000080050084B10B50400002B88
:1005800002D0002100E000BF054B1868836A002BF1
:1005900000D09847200000F033F8C046000000006B
:1005A000200600080E4B70B500251E000D4CE41A05
:1005B000A410A54204D0AB00F35898470135F8E7E2
:1005C00000F020F8084B00251E00084CE41AA41087
:1005D000A54204D0AB00F35898470135F8E770BD49
:1005E0006000002060000020600000206400002007
:1005F00003008218934202D019700133FAE7704762
:10060000FEE70000F8B5C046F8BC08BC9E4670473F
:10061000F8B5C046F8BC08BC9E46704743000000D1
:080620000000002000000000B2
:08062800F8FAFF7F0100000059
:1006300000000000000000000000000000000000BA
:1006400000000000000000000000000000000000AA
:100650001C06000800000000000000000000000070
:10066000000000000000000000000000000000008A
:10067000000000000000000000000000000000007A
:10068000000000000000000000000000000000006A
:08069000E9000008C1000008A8
:0400000508000000EF
:00000001FF
