:020000040800F2
:10000000002000206D0D00083D0E0008410E000884
:1000100000000000000000000000000000000000E0
:10002000000000000000000000000000450E000875
:10003000B90D000800000000490E00084D0E000830
:10004000BF0D0008C10D0008C30D0008C50D000854
:10005000C70D0008C90D0008CB0D0008CD0D000824
:10006000CF0D0008D10D0008D30D0008D50D0008F4
:10007000D70D0008D90D000800000000DB0D0008B6
:1000800000000000DD0D000800000000000000007E
:10009000DF0D000800000000E10D0008E30D00087E
:1000A000E50D0008E70D0008E90D0008EB0D00085C
:1000B000ED0D0008EF0D0008F10D0008F30D00082C
:1000C00010B5064C2378002B07D1054B002B02D02E
:1000D000044800E000BF0123237010BD6C00002025
:1000E0000000000090100008084B10B5002B03D052
:1000F0000749084800E000BF07480368002B00D10B
:1001000010BD064B002BFBD09847F9E7000000001C
:1001100070000020901000086C000020000000001B
:10012000164B002B00D1144B9D46402292029A1A86
:10013000924600218B460F461348144A121A00F0CB
:1001400081FF0F4B002B00D098470E4B002B00D0A7
:1001500098470020002104000D000D48002802D01F
:100160000C4800E000BF00F047FF2000290000F02D
:10017000BBFD00F02BFFC04600000800002000205F
:1001800000000000000000006C0000208C00002037
:100190000000000000000000FA2110B5074B040029
:1001A0008900186800F086FE00F06AF8012000223D
:1001B0002100404200F030F8002010BD0000002077
:1001C000402310B5054A002011680B431360FFF768
:1001D000E3FF00F013FE002010BDC04600200240E7
:1001E000024A1368013313607047C046880000203C
:1001F000014B18687047C0468800002010B582B0D7
:100200000190FFF7F5FF0400FFF7F2FF019B001BD1
:100210009842F9D302B010BD70B5002814DB032456
:1002200083082040FC342600134AC0259446C000B1
:1002300089018640214081409B006344AD005A59AA
:10024000B2431143595170BD03240F23C0B2034080
:100250002040FC342500094AC000944689018540AD
:1002600021408140083B9B089B006344DA69AA4314
:100270001143D961E7E7C04600E100E000ED00E08E
:100280000A4A012390420FD8094A01385060C02021
:10029000084900060B6A1B021B0A03430B6200237A
:1002A000936007331360002318007047FFFFFF00BF
:1002B00010E000E000ED00E0042805D00421054A2C
:1002C00013688B4313607047024B1A681043186021
:1002D000F9E7C04610E000E07047C04610B5FFF7F0
:1002E000FBFF10BDF0B54D4644465F465646F0B4A0
:1002F0000D6883B000240023002D00D18FE001227F
:10030000914602329246624A93464A462E009A40ED
:100310001640B0467DD04D6810272E00BE43022EF9
:1003200016D105361E40B600013FB740DD08AD00CE
:10033000451901952D6ABD43AC460D691027B5409E
:100340002E0065462E43019D2E624D682E00BE4351
:10035000013E012E6AD95646A640F64357463D4017
:10036000A5400268324015430560C26880251640EA
:100370008A686D05A2401643C6604A682A4247D083
:100380005A464D46526B56462A435D466A63414D76
:100390009A08AC461E40B60092006244B4460F264E
:1003A0006746BE409568B543A026F605B0425ED0CC
:1003B000394EB0425DD0394EB0425DD0384EB04279
:1003C0005ED0384EB0425FD006266746BE40354309
:1003D00095604546344AEE434D681268ED0343D4B8
:1003E0003240314D2A606A684D68AD0339D43240DD
:1003F0002D4D6A604A68AD68D2022FD435402A4A32
:1004000095604D68D268AD0224D43240264DEA6032
:100410000D682A0001330234DA4000D075E703B0DA
:100420003CBC90469946A246AB46F0BD5646A64017
:10043000CF68F643A740856835403D434F46856009
:10044000456895434A6812093A409A402A434260F7
:100450004D6883E7454615432A00D7E742461543D2
:10046000CDE745462A43C3E745462A43B9E7002678
:10047000ADE74E46BE40AAE702266746BE40A6E765
:1004800056466746BE40A2E705266746BE409EE741
:10049000001002400000014000040050000800501D
:1004A000000C0050001C005000040140002A01D143
:1004B000816270478161FCE743695940416170473F
:1004C000F02110B5194BDA68114214D18022996BD2
:1004D000520511421AD1996B0A439A63144A116862
:1004E000C02252019C6B0A40124921409963C023EB
:1004F0005B019A4213D0002301200F490A6882430E
:100500001A430A600A681040584010BD084B1A6828
:10051000C0235B011A40C0235B019A42EBD1074B19
:100520009C46604443424341E6E7C0460010024017
:1005300000700040FFFFFFEF002002400040FFFF7F
:10054000F0B54F464646C0B4036883B00400DA07EE
:1005500038D50C20C849CA680240082A00D14FE1AA
:10056000CA6802400C2A00D146E1802362685B021F
:100570009A4200D1D2E1A021C9028A4200D170E1A1
:10058000BD4ABE4910680140116011680B400193DB
:10059000019B1168BA4B0B4013606368002B00D1BC
:1005A00093E1FFF725FE80250700B34EAD0205E07D
:1005B000FFF71EFEC01B642800D984E133682B427C
:1005C000F6D023689A072CD50C21AB4AD3680B4090
:1005D000042B00D18EE1D3680B400C2B00D185E1B8
:1005E000E368A54D002B00D115E109212A680427F5
:1005F0008A4313432B60FFF7FBFD060005E0FFF77E
:10060000F7FD801B022800D95DE12B689A4A1F4242
:10061000F5D02169536808029A490B40034353609F
:100620002368DA0600D586E01A0717D56369924D6C
:10063000002B00D102E101232A6D022613432B6512
:10064000FFF7D6FD070005E0FFF7D2FDC01B02282B
:1006500000D938E12B6D1E42F6D023685B0743D5E5
:1006600080220020844B5205996B8046114204D1B0
:10067000996B0A439A63012398468027824E7F0034
:1006800033683B4200D10FE18022A36852009342BD
:1006900000D191E1002B04D0A021C9008B4200D1F0
:1006A00080E1754B794A196D0A401A65196D784ACF
:1006B0000A401A65A368002B00D148E1FFF798FDB6
:1006C000802681466C4FB600724D06E0FFF790FD24
:1006D0004B46C01AA84200D9F5E03B6D3342F5D035
:1006E0004346012B00D157E1636A002B1DD00C213A
:1006F000614DEA680A400C2A00D18AE02A68022B80
:1007000000D15EE1644B2C0013402B60FFF770FDBD
:1007100080250600AD0405E0FFF76AFD801B022876
:1007200000D9D0E023682B42F6D1002003B00CBCE6
:1007300090469946F0BD0C224F4DEB681A4227D0E7
:10074000A369002B00D1EEE080222B6852001343F6
:100750002B60FFF74DFD80260700B60005E0FFF790
:1007600047FDC01B022800D9ADE02B68424A334246
:10077000F5D05168494B0B40216A0B4353605368D5
:10078000E1691B0209061B0A0B43536023684BE710
:100790002B689B0502D5A369002B3AD0E023364D88
:1007A000206A6A681B021340984200D8E1E0FFF714
:1007B00087FE00282DD16A68384B1340226A134304
:1007C0006B606B68E2691B0212061B0A13436B60C5
:1007D000294B0020DA68236A1206590B8023013165
:1007E0001B028B402E49120F8A5CD3402D4A1360A6
:1007F000FFF7D2FC236817E7CA68D20300D4B4E637
:100800001D4A1268920300D4DCE66268002A00D018
:10081000D8E601208AE701222B68042693432B6047
:10082000FFF7E6FC070004E0FFF7E2FCC01B02282C
:1008300049D82B681E42F7D12368F2E601222B6DBE
:10084000022693432B65FFF7D3FC070004E0FFF774
:10085000CFFCC01B022836D82B6D1E42F7D123686F
:10086000FCE68020044AC00211680143116011684F
:100870000B43136091E6C04600100240FFFFFEFFED
:10088000FFFFFBFFFFE0FFFF00700040FFFEFFFFE8
:10089000FFFBFFFF88130000FFFFFFFEFF1FFFFFAE
:1008A000701000080000002033683B433360FFF7FE
:1008B0009FFC050033683B4200D0E5E6FFF798FC5B
:1008C000401B6428F6D9032030E7FFF791FC802510
:1008D0000700554EAD0204E0FFF78AFCC01B6428F8
:1008E000F1D833682B42F7D123686BE6D368DB037A
:1008F00000D575E64C4B1B685B0702D5E368012BFE
:1009000087D12269484811024368484A13400B4383
:1009100043602368DA0600D486E60CE742490B6898
:100920001A430A6039E62A68414B802613402B603F
:10093000FFF75EFCB600070004E0FFF759FCC01BA0
:100940000228C0D82B683342F7D123686CE6FFF742
:100950004FFC80268146344FB600364D05E0FFF748
:1009600047FC4B46C01AA842ADD83B6D3342F6D186
:10097000B6E66A68304B1340184368606B68E269FA
:100980001B0212061B0A13436B60206AFFF798FDD7
:10099000002800D11CE73CE7234A284B916B0B4011
:1009A0009363A1E68020204BC000196D01431965B7
:1009B000196D0A431A657DE61B490A6D13430B65E1
:1009C00078E61F4B802713402B60FFF711FCBF0414
:1009D000804606E0FFF70CFC4346C01A022800D907
:1009E00071E72B68104E3B42F4D1E26AA16AF368CA
:1009F0001143226B80241143124AA4041340802225
:100A00000B43F3603368520413433360FFF7F0FB8A
:100A1000050005E0FFF7ECFB401B022800D952E778
:100A200033682342F6D080E600100240FFE0FFFF6B
:100A3000FFFEFFFF88130000FF1FFFFFFFFFFFEF18
:100A4000FFFFFFFEFFFF02FF0C2310B51A4AD1681B
:100A50000B40082B22D00C2B0ED0042B07D080206B
:100A6000536800021B045B0F0133984010BD1368EC
:100A7000DB0615D51148F9E78B0211481B0FC45C42
:100A80000902D368890F0131DB030BD41368DB063D
:100A90000DD50A48604300F00DFAE7E70948E5E79D
:100AA0000948E3E70748604300F004FADEE7064838
:100AB000604300F0FFF9D9E70010024000093D0053
:100AC0008010000800127A000024F400F8B54F46A8
:100AD00046460D000121C0B45A4A040013680B4079
:100AE000AB420CD213688B432B431360136819403D
:100AF0008D4204D001200CBC90469946F8BD236875
:100B00009A0707D5F021504AD3688B43A1680B435D
:100B1000D3602368DB0728D54B4A63681268022B31
:100B200059D0032B52D0012B68D09205E2D5032176
:100B3000454EF2688A431343F360FFF759FB63683D
:100B40000700022B4AD0032B5BD0012B69D00C236A
:100B500098463E4B994604E0FFF74AFBC01B4845C8
:100B600037D84246F3681A42F6D10121354A136854
:100B70000B409D4205D213688B43136013681942E2
:100B8000B8D123685A0707D52F4A314BD1680B409B
:100B9000E1680B43D36023681B0707D52A48216906
:100BA000C3682C4AC90013400B43C360FFF74CFFD6
:100BB000254B294ADB681B061B0FD35CD840274B0B
:100BC00018600020FFF7E8FA002094E79201AED405
:100BD00090E703208FE79203A9D48BE70A33984666
:100BE0001A4B994604E0FFF703FBC01B4845F0D8B9
:100BF0004246F3681340082BF5D1B6E7520796D466
:100C000078E709339846114B994604E0FFF7F0FA6C
:100C1000C01B4845DDD84246F36813400C2BF5D184
:100C2000A3E70B339846094B994604E0FFF7E0FA37
:100C3000C01B4845CDD84246F3681340042BF5D17C
:100C400093E7C046002002400010024088130000D5
:100C5000FFF8FFFFFFC7FFFF701000080000002033
:100C6000014B18687047C0460000002000B51C4AC0
:100C70001C4B116893B00B40802109010B4313609A
:100C80001023A02205930F3B0B930023120205A80B
:100C90000C930D920E93FFF753FC002800D0FEE753
:100CA0000F23019002900390049000216846009366
:100CB000FFF70CFF002800D0FEE7FFF7D1FFFA2175
:100CC000890000F0F7F8FFF7DBFA0420FFF7F4FAE9
:100CD0000120002200214042FFF79EFA13B000BD20
:100CE00000700040FFE7FFFF00B587B0FFF768FA2C
:100CF000FFF7BCFF02201B4AD16A0143D162D36ACD
:100D000003210340012200931748009BFFF7CEFB0D
:100D100003230193023B0293002301A9124803938A
:100D20000493FFF7DFFA0120002200214042FFF781
:100D300073FAFFF755FAFFF75BFAC8204000FFF798
:100D40005DFA01210848FFF7B7FBC8204000FFF714
:100D500055FA02210448FFF7AFFBC820FFF74EFA0F
:100D6000EFE7C04600100240000400500649074A61
:100D7000074B9B1A03DD043BC858D050FBDC0548E9
:100D800080470548004700009C1000080000002034
:100D90006C000020590E0008210100081549164A70
:100DA000002301E00B6004319142FBD3FFF79CFF6D
:100DB000FEE7FEE7FEE7FEE7FEE7FEE7FEE7FEE70B
:100DC000FEE7FEE7FEE7FEE7FEE7FEE7FEE7FEE7FB
:100DD000FEE7FEE7FEE7FEE7FEE7FEE7FEE7FEE7EB
:100DE000FEE7FEE7FEE7FEE7FEE7FEE7FEE7FEE7DB
:100DF000FEE7FEE76C0000208C000020012210B509
:100E00000D4B0520596B40420A4380215A639A6B6F
:100E100049050A439A6300210022FFF7FDF90220E9
:100E2000002200214042FFF7F7F9012000220021B3
:100E30004042FFF7F1F910BD001002407047C04674
:100E4000FEE7C0467047C0467047C04610B5FFF782
:100E5000C7F9FFF743FA10BD8021104B49001A680B
:100E60000A431A60D9680E4A0A40DA6019680D4AC6
:100E70000A4001211A609A688A439A6019680A4AEE
:100E80000A401A60D968094A0A40DA6000221A61E9
:100E90008022074B12059A607047C046001002403E
:100EA0000C40FF88F6FFF6FEFFFFFBFFFFFF02FF8F
:100EB00000ED00E0002243088B4274D303098B420B
:100EC0005FD3030A8B4244D3030B8B4228D3030C1A
:100ED0008B420DD3FF22090212BA030C8B4202D3BC
:100EE0001212090265D0030B8B4219D300E0090AE4
:100EF000C30B8B4201D3CB03C01A5241830B8B42ED
:100F000001D38B03C01A5241430B8B4201D34B03D5
:100F1000C01A5241030B8B4201D30B03C01A52413A
:100F2000C30A8B4201D3CB02C01A5241830A8B42BF
:100F300001D38B02C01A5241430A8B4201D34B02A8
:100F4000C01A5241030A8B4201D30B02C01A52410C
:100F5000CDD2C3098B4201D3CB01C01A52418309C0
:100F60008B4201D38B01C01A524143098B4201D3FA
:100F70004B01C01A524103098B4201D30B01C01A25
:100F80005241C3088B4201D3CB00C01A524183089F
:100F90008B4201D38B00C01A524143088B4201D3CC
:100FA0004B00C01A5241411A00D20146524110462C
:100FB0007047FFE701B5002000F006F802BDC0460B
:100FC0000029F7D076E770477047C046084B10B548
:100FD0000400002B02D0002100E000BF054B186880
:100FE000836A002B00D09847200000F033F8C046F9
:100FF000000000008C1000080E4B70B500251E008C
:101000000D4CE41AA410A54204D0AB00F358984745
:101010000135F8E700F020F8084B00251E00084CC9
:10102000E41AA410A54204D0AB00F3589847013548
:10103000F8E770BD64000020640000206400002018
:101040006800002003008218934202D01970013317
:10105000FAE77047FEE70000F8B5C046F8BC08BCE8
:101060009E467047F8B5C046F8BC08BC9E4670471F
:101070000000000000000000010203040607080948
:10108000030406080C101820304300000400002060
:04109000000000005C
:081094008CF0FF7F0100000059
:10109C0080841E0000000000000000000000000022
:1010AC000000000000000000000000000000000034
:1010BC000000000089100008000000000000000083
:1010CC000000000000000000000000000000000014
:1010DC000000000000000000000000000000000004
:1010EC0000000000000000000000000000000000F4
:0C10FC0000000000E9000008C10000082E
:0400000508000000EF
:00000001FF
